:100000000C9446000C9465000C9465000C946500FB
:100010000C9465000C9465000C9465000C9422010E
:100020000C943E010C9465000C9465000C946500E2
:100030000C9465000C9465000C94FC000C94650015
:100040000C9465000C9465000C9465000C9465009C
:100050000C9465000C9465000C9465000C9465008C
:100060000C9465000C9465000C9465000C9465007C
:100070000C9465000C9465000C9465000C9465006C
:100080000C9465000C9465000C94650011241FBE4F
:10009000CFEFD0E1DEBFCDBF11E0A0E0B1E0EAE3F9
:1000A000F4E000E00BBF02C007900D92AE31B10743
:1000B000D9F711E0AEE1B1E001C01D92AF31B10757
:1000C000E1F70E946F010C941B020C940000DF9377
:1000D000CF9300D000D0CDB7DEB769837A838B830E
:1000E0009C8329813A814B815C81DA01C9010197A6
:1000F000A109B10989839A83AB83BC83211531059A
:100100004105510571F70F900F900F900F90CF910F
:10011000DF910895FF920F931F93DF93CF9300D049
:1001200000D0CDB7DEB720910A0130910B0102E378
:1001300010E0F8011082C9016AE070E00E94F40149
:10014000F82EC9016AE070E00E94F401262F372FD3
:10015000862F972F6AE070E00E94F401F82F822F1B
:10016000932F6AE070E00E94F401262F372F862F2C
:10017000972F6AE070E00E94F401E82F822F932FFE
:100180006AE070E00E94F401CB016AE070E00E9436
:10019000F401482F80911E0190E0019664E070E028
:1001A0000E94080280931E0190E021E030E0082EBA
:1001B00002C0220F331F0A94E2F7209523B9498326
:1001C000EA83FB83FC82FE01E80FF91F8181E0E0F6
:1001D000F1E0E80FF11D8081F801808384EC99E063
:1001E0000197F1F70F900F900F900F90CF91DF9143
:1001F0001F910F91FF9008951F920F920FB60F92CB
:1002000011242F938F939F9380EF8DBD8EEB8CBD28
:1002100080910C0190910D012EE08F30920730F407
:10022000019690930D0180930C0104C010920D0172
:1002300010920C019F918F912F910F900FBE0F90F4
:100240001F9018951F920F920FB60F920BB60F9238
:1002500011248F93EF93FF9383B58A3A28F4E3E454
:10026000F0E080818B5F8083FF91EF918F910F9001
:100270000BBE0F900FBE0F901F9018951F920F92FC
:100280000FB60F920BB60F9211248F93EF93FF933B
:1002900083B58A3028F0E3E4F0E0808185508083E4
:1002A000FF91EF918F910F900BBE0F900FBE0F90AB
:1002B0001F901895EEE4F0E0108280EF8DBD8EEB7C
:1002C0008CBD1FBC84E0808387BF0895E5E4F0E027
:1002D000108214BC85E083BD83EE808308954F9225
:1002E0005F927F928F929F92AF92BF92CF92DF9256
:1002F000EF92FF920F931F93DF93CF93CDB7DEB7AB
:1003000060970FB6F894DEBF0FBECDBFDE01119629
:10031000EEE0F1E080E101900D928150E1F7F89478
:100320008FE082B910EC13B98FE781BB80E882BB04
:100330009FEF909361008AEA8093620097BB98BB1D
:100340000E945A010E94660180EE8ABF19BF78940C
:10035000FF24EE240F2EF0E38F2E9924F02D2E0192
:100360000894411C511C0F2EF3E4CF2EDD24F02DF8
:100370000F2EF2E6AF2EBB24F02D0F2EF4E67F2ECB
:10038000F02D0E948A0000910C0110910D01C8010E
:100390006CE370E00E94F401282FF401808188232F
:1003A0007CF0F21669F0F201EE0DF11D8081F6018C
:1003B00080838E2D8F5F0F2EFFE0EF2EF02DE82231
:1003C000F6018081F5018083C8016CE370E00E9432
:1003D000F401679DB0011124620F711D70930B0130
:1003E00060930A01F22ECDCFAA1BBB1B51E107C0BF
:1003F000AA1FBB1FA617B70710F0A61BB70B881FB5
:10040000991F5A95A9F780959095BC01CD01089543
:1004100097FB092E07260AD077FD04D0E5DF06D02A
:1004200000201AF4709561957F4F0895F6F7909526
:0A04300081959F4F0895F894FFCFC7
:10043A00BF86DBCFE6EDFD87FFEF1C00060E051435
:0E044A00283C5064788CA0967864503C2814AE
:00000001FF
